{
  "abi": [
    {
      "type": "constructor",
      "inputs": [
        {
          "name": "_verifier",
          "type": "address",
          "internalType": "address"
        },
        {
          "name": "_owner",
          "type": "address",
          "internalType": "address"
        }
      ],
      "stateMutability": "nonpayable"
    },
    {
      "type": "function",
      "name": "approve",
      "inputs": [
        {
          "name": "",
          "type": "address",
          "internalType": "address"
        },
        {
          "name": "",
          "type": "uint256",
          "internalType": "uint256"
        }
      ],
      "outputs": [],
      "stateMutability": "nonpayable"
    },
    {
      "type": "function",
      "name": "balanceOf",
      "inputs": [
        {
          "name": "owner",
          "type": "address",
          "internalType": "address"
        }
      ],
      "outputs": [
        {
          "name": "",
          "type": "uint256",
          "internalType": "uint256"
        }
      ],
      "stateMutability": "view"
    },
    {
      "type": "function",
      "name": "getApproved",
      "inputs": [
        {
          "name": "tokenId",
          "type": "uint256",
          "internalType": "uint256"
        }
      ],
      "outputs": [
        {
          "name": "",
          "type": "address",
          "internalType": "address"
        }
      ],
      "stateMutability": "view"
    },
    {
      "type": "function",
      "name": "getCreditScore",
      "inputs": [
        {
          "name": "user",
          "type": "address",
          "internalType": "address"
        }
      ],
      "outputs": [
        {
          "name": "",
          "type": "uint16",
          "internalType": "uint16"
        }
      ],
      "stateMutability": "view"
    },
    {
      "type": "function",
      "name": "getIdentityData",
      "inputs": [
        {
          "name": "user",
          "type": "address",
          "internalType": "address"
        }
      ],
      "outputs": [
        {
          "name": "",
          "type": "tuple",
          "internalType": "struct ArcID.Identity",
          "components": [
            {
              "name": "dataHash",
              "type": "bytes32",
              "internalType": "bytes32"
            },
            {
              "name": "verified",
              "type": "bool",
              "internalType": "bool"
            },
            {
              "name": "creditScore",
              "type": "uint16",
              "internalType": "uint16"
            },
            {
              "name": "issuedAt",
              "type": "uint64",
              "internalType": "uint64"
            },
            {
              "name": "metadataURI",
              "type": "string",
              "internalType": "string"
            }
          ]
        }
      ],
      "stateMutability": "view"
    },
    {
      "type": "function",
      "name": "identities",
      "inputs": [
        {
          "name": "tokenId",
          "type": "uint256",
          "internalType": "uint256"
        }
      ],
      "outputs": [
        {
          "name": "dataHash",
          "type": "bytes32",
          "internalType": "bytes32"
        },
        {
          "name": "verified",
          "type": "bool",
          "internalType": "bool"
        },
        {
          "name": "creditScore",
          "type": "uint16",
          "internalType": "uint16"
        },
        {
          "name": "issuedAt",
          "type": "uint64",
          "internalType": "uint64"
        },
        {
          "name": "metadataURI",
          "type": "string",
          "internalType": "string"
        }
      ],
      "stateMutability": "view"
    },
    {
      "type": "function",
      "name": "identityOf",
      "inputs": [
        {
          "name": "userAddress",
          "type": "address",
          "internalType": "address"
        }
      ],
      "outputs": [
        {
          "name": "tokenId",
          "type": "uint256",
          "internalType": "uint256"
        }
      ],
      "stateMutability": "view"
    },
    {
      "type": "function",
      "name": "isApprovedForAll",
      "inputs": [
        {
          "name": "owner",
          "type": "address",
          "internalType": "address"
        },
        {
          "name": "operator",
          "type": "address",
          "internalType": "address"
        }
      ],
      "outputs": [
        {
          "name": "",
          "type": "bool",
          "internalType": "bool"
        }
      ],
      "stateMutability": "view"
    },
    {
      "type": "function",
      "name": "isVerified",
      "inputs": [
        {
          "name": "user",
          "type": "address",
          "internalType": "address"
        }
      ],
      "outputs": [
        {
          "name": "",
          "type": "bool",
          "internalType": "bool"
        }
      ],
      "stateMutability": "view"
    },
    {
      "type": "function",
      "name": "mintIdentity",
      "inputs": [
        {
          "name": "to",
          "type": "address",
          "internalType": "address"
        },
        {
          "name": "dataHash",
          "type": "bytes32",
          "internalType": "bytes32"
        },
        {
          "name": "metadataURI",
          "type": "string",
          "internalType": "string"
        },
        {
          "name": "creditScore",
          "type": "uint16",
          "internalType": "uint16"
        }
      ],
      "outputs": [
        {
          "name": "",
          "type": "uint256",
          "internalType": "uint256"
        }
      ],
      "stateMutability": "nonpayable"
    },
    {
      "type": "function",
      "name": "name",
      "inputs": [],
      "outputs": [
        {
          "name": "",
          "type": "string",
          "internalType": "string"
        }
      ],
      "stateMutability": "view"
    },
    {
      "type": "function",
      "name": "owner",
      "inputs": [],
      "outputs": [
        {
          "name": "",
          "type": "address",
          "internalType": "address"
        }
      ],
      "stateMutability": "view"
    },
    {
      "type": "function",
      "name": "ownerOf",
      "inputs": [
        {
          "name": "tokenId",
          "type": "uint256",
          "internalType": "uint256"
        }
      ],
      "outputs": [
        {
          "name": "",
          "type": "address",
          "internalType": "address"
        }
      ],
      "stateMutability": "view"
    },
    {
      "type": "function",
      "name": "renounceOwnership",
      "inputs": [],
      "outputs": [],
      "stateMutability": "nonpayable"
    },
    {
      "type": "function",
      "name": "reverifyIdentity",
      "inputs": [
        {
          "name": "user",
          "type": "address",
          "internalType": "address"
        },
        {
          "name": "refreshedHash",
          "type": "bytes32",
          "internalType": "bytes32"
        },
        {
          "name": "refreshedURI",
          "type": "string",
          "internalType": "string"
        },
        {
          "name": "refreshedScore",
          "type": "uint16",
          "internalType": "uint16"
        }
      ],
      "outputs": [],
      "stateMutability": "nonpayable"
    },
    {
      "type": "function",
      "name": "revokeIdentity",
      "inputs": [
        {
          "name": "user",
          "type": "address",
          "internalType": "address"
        }
      ],
      "outputs": [],
      "stateMutability": "nonpayable"
    },
    {
      "type": "function",
      "name": "safeTransferFrom",
      "inputs": [
        {
          "name": "from",
          "type": "address",
          "internalType": "address"
        },
        {
          "name": "to",
          "type": "address",
          "internalType": "address"
        },
        {
          "name": "tokenId",
          "type": "uint256",
          "internalType": "uint256"
        }
      ],
      "outputs": [],
      "stateMutability": "nonpayable"
    },
    {
      "type": "function",
      "name": "safeTransferFrom",
      "inputs": [
        {
          "name": "from",
          "type": "address",
          "internalType": "address"
        },
        {
          "name": "to",
          "type": "address",
          "internalType": "address"
        },
        {
          "name": "tokenId",
          "type": "uint256",
          "internalType": "uint256"
        },
        {
          "name": "data",
          "type": "bytes",
          "internalType": "bytes"
        }
      ],
      "outputs": [],
      "stateMutability": "nonpayable"
    },
    {
      "type": "function",
      "name": "setApprovalForAll",
      "inputs": [
        {
          "name": "",
          "type": "address",
          "internalType": "address"
        },
        {
          "name": "",
          "type": "bool",
          "internalType": "bool"
        }
      ],
      "outputs": [],
      "stateMutability": "nonpayable"
    },
    {
      "type": "function",
      "name": "setVerifier",
      "inputs": [
        {
          "name": "_verifier",
          "type": "address",
          "internalType": "address"
        }
      ],
      "outputs": [],
      "stateMutability": "nonpayable"
    },
    {
      "type": "function",
      "name": "supportsInterface",
      "inputs": [
        {
          "name": "interfaceId",
          "type": "bytes4",
          "internalType": "bytes4"
        }
      ],
      "outputs": [
        {
          "name": "",
          "type": "bool",
          "internalType": "bool"
        }
      ],
      "stateMutability": "view"
    },
    {
      "type": "function",
      "name": "symbol",
      "inputs": [],
      "outputs": [
        {
          "name": "",
          "type": "string",
          "internalType": "string"
        }
      ],
      "stateMutability": "view"
    },
    {
      "type": "function",
      "name": "tokenDataHash",
      "inputs": [
        {
          "name": "tokenId",
          "type": "uint256",
          "internalType": "uint256"
        }
      ],
      "outputs": [
        {
          "name": "",
          "type": "bytes32",
          "internalType": "bytes32"
        }
      ],
      "stateMutability": "view"
    },
    {
      "type": "function",
      "name": "tokenMetadataURI",
      "inputs": [
        {
          "name": "tokenId",
          "type": "uint256",
          "internalType": "uint256"
        }
      ],
      "outputs": [
        {
          "name": "",
          "type": "string",
          "internalType": "string"
        }
      ],
      "stateMutability": "view"
    },
    {
      "type": "function",
      "name": "tokenURI",
      "inputs": [
        {
          "name": "tokenId",
          "type": "uint256",
          "internalType": "uint256"
        }
      ],
      "outputs": [
        {
          "name": "",
          "type": "string",
          "internalType": "string"
        }
      ],
      "stateMutability": "view"
    },
    {
      "type": "function",
      "name": "transferFrom",
      "inputs": [
        {
          "name": "from",
          "type": "address",
          "internalType": "address"
        },
        {
          "name": "to",
          "type": "address",
          "internalType": "address"
        },
        {
          "name": "tokenId",
          "type": "uint256",
          "internalType": "uint256"
        }
      ],
      "outputs": [],
      "stateMutability": "nonpayable"
    },
    {
      "type": "function",
      "name": "transferOwnership",
      "inputs": [
        {
          "name": "newOwner",
          "type": "address",
          "internalType": "address"
        }
      ],
      "outputs": [],
      "stateMutability": "nonpayable"
    },
    {
      "type": "function",
      "name": "updateIdentity",
      "inputs": [
        {
          "name": "user",
          "type": "address",
          "internalType": "address"
        },
        {
          "name": "newDataHash",
          "type": "bytes32",
          "internalType": "bytes32"
        },
        {
          "name": "newMetadataURI",
          "type": "string",
          "internalType": "string"
        },
        {
          "name": "newCreditScore",
          "type": "uint16",
          "internalType": "uint16"
        },
        {
          "name": "verifiedFlag",
          "type": "bool",
          "internalType": "bool"
        }
      ],
      "outputs": [],
      "stateMutability": "nonpayable"
    },
    {
      "type": "function",
      "name": "verifier",
      "inputs": [],
      "outputs": [
        {
          "name": "",
          "type": "address",
          "internalType": "address"
        }
      ],
      "stateMutability": "view"
    },
    {
      "type": "event",
      "name": "Approval",
      "inputs": [
        {
          "name": "owner",
          "type": "address",
          "indexed": true,
          "internalType": "address"
        },
        {
          "name": "approved",
          "type": "address",
          "indexed": true,
          "internalType": "address"
        },
        {
          "name": "tokenId",
          "type": "uint256",
          "indexed": true,
          "internalType": "uint256"
        }
      ],
      "anonymous": false
    },
    {
      "type": "event",
      "name": "ApprovalForAll",
      "inputs": [
        {
          "name": "owner",
          "type": "address",
          "indexed": true,
          "internalType": "address"
        },
        {
          "name": "operator",
          "type": "address",
          "indexed": true,
          "internalType": "address"
        },
        {
          "name": "approved",
          "type": "bool",
          "indexed": false,
          "internalType": "bool"
        }
      ],
      "anonymous": false
    },
    {
      "type": "event",
      "name": "IdentityMinted",
      "inputs": [
        {
          "name": "user",
          "type": "address",
          "indexed": true,
          "internalType": "address"
        },
        {
          "name": "tokenId",
          "type": "uint256",
          "indexed": true,
          "internalType": "uint256"
        },
        {
          "name": "dataHash",
          "type": "bytes32",
          "indexed": false,
          "internalType": "bytes32"
        }
      ],
      "anonymous": false
    },
    {
      "type": "event",
      "name": "IdentityReverified",
      "inputs": [
        {
          "name": "user",
          "type": "address",
          "indexed": true,
          "internalType": "address"
        },
        {
          "name": "tokenId",
          "type": "uint256",
          "indexed": true,
          "internalType": "uint256"
        },
        {
          "name": "newHash",
          "type": "bytes32",
          "indexed": false,
          "internalType": "bytes32"
        }
      ],
      "anonymous": false
    },
    {
      "type": "event",
      "name": "IdentityRevoked",
      "inputs": [
        {
          "name": "user",
          "type": "address",
          "indexed": true,
          "internalType": "address"
        },
        {
          "name": "tokenId",
          "type": "uint256",
          "indexed": true,
          "internalType": "uint256"
        }
      ],
      "anonymous": false
    },
    {
      "type": "event",
      "name": "IdentityUpdated",
      "inputs": [
        {
          "name": "user",
          "type": "address",
          "indexed": true,
          "internalType": "address"
        },
        {
          "name": "tokenId",
          "type": "uint256",
          "indexed": true,
          "internalType": "uint256"
        },
        {
          "name": "dataHash",
          "type": "bytes32",
          "indexed": false,
          "internalType": "bytes32"
        }
      ],
      "anonymous": false
    },
    {
      "type": "event",
      "name": "OwnershipTransferred",
      "inputs": [
        {
          "name": "previousOwner",
          "type": "address",
          "indexed": true,
          "internalType": "address"
        },
        {
          "name": "newOwner",
          "type": "address",
          "indexed": true,
          "internalType": "address"
        }
      ],
      "anonymous": false
    },
    {
      "type": "event",
      "name": "Transfer",
      "inputs": [
        {
          "name": "from",
          "type": "address",
          "indexed": true,
          "internalType": "address"
        },
        {
          "name": "to",
          "type": "address",
          "indexed": true,
          "internalType": "address"
        },
        {
          "name": "tokenId",
          "type": "uint256",
          "indexed": true,
          "internalType": "uint256"
        }
      ],
      "anonymous": false
    },
    {
      "type": "event",
      "name": "VerifierUpdated",
      "inputs": [
        {
          "name": "oldVerifier",
          "type": "address",
          "indexed": true,
          "internalType": "address"
        },
        {
          "name": "newVerifier",
          "type": "address",
          "indexed": true,
          "internalType": "address"
        }
      ],
      "anonymous": false
    },
    {
      "type": "error",
      "name": "ERC721IncorrectOwner",
      "inputs": [
        {
          "name": "sender",
          "type": "address",
          "internalType": "address"
        },
        {
          "name": "tokenId",
          "type": "uint256",
          "internalType": "uint256"
        },
        {
          "name": "owner",
          "type": "address",
          "internalType": "address"
        }
      ]
    },
    {
      "type": "error",
      "name": "ERC721InsufficientApproval",
      "inputs": [
        {
          "name": "operator",
          "type": "address",
          "internalType": "address"
        },
        {
          "name": "tokenId",
          "type": "uint256",
          "internalType": "uint256"
        }
      ]
    },
    {
      "type": "error",
      "name": "ERC721InvalidApprover",
      "inputs": [
        {
          "name": "approver",
          "type": "address",
          "internalType": "address"
        }
      ]
    },
    {
      "type": "error",
      "name": "ERC721InvalidOperator",
      "inputs": [
        {
          "name": "operator",
          "type": "address",
          "internalType": "address"
        }
      ]
    },
    {
      "type": "error",
      "name": "ERC721InvalidOwner",
      "inputs": [
        {
          "name": "owner",
          "type": "address",
          "internalType": "address"
        }
      ]
    },
    {
      "type": "error",
      "name": "ERC721InvalidReceiver",
      "inputs": [
        {
          "name": "receiver",
          "type": "address",
          "internalType": "address"
        }
      ]
    },
    {
      "type": "error",
      "name": "ERC721InvalidSender",
      "inputs": [
        {
          "name": "sender",
          "type": "address",
          "internalType": "address"
        }
      ]
    },
    {
      "type": "error",
      "name": "ERC721NonexistentToken",
      "inputs": [
        {
          "name": "tokenId",
          "type": "uint256",
          "internalType": "uint256"
        }
      ]
    },
    {
      "type": "error",
      "name": "IdentityExists",
      "inputs": []
    },
    {
      "type": "error",
      "name": "NoIdentity",
      "inputs": []
    },
    {
      "type": "error",
      "name": "NotAuthorized",
      "inputs": []
    },
    {
      "type": "error",
      "name": "OnlyVerifier",
      "inputs": []
    },
    {
      "type": "error",
      "name": "OwnableInvalidOwner",
      "inputs": [
        {
          "name": "owner",
          "type": "address",
          "internalType": "address"
        }
      ]
    },
    {
      "type": "error",
      "name": "OwnableUnauthorizedAccount",
      "inputs": [
        {
          "name": "account",
          "type": "address",
          "internalType": "address"
        }
      ]
    },
    {
      "type": "error",
      "name": "SoulboundTransferBlocked",
      "inputs": []
    },
    {
      "type": "error",
      "name": "TokenDoesNotExist",
      "inputs": []
    },
    {
      "type": "error",
      "name": "ZeroAddress",
      "inputs": []
    }
  ],
  "bytecode": {
    "object": "0x608060405234801561000f575f5ffd5b50604051613cd2380380613cd28339818101604052810190610031919061030c565b806040518060400160405280600581526020017f41726349440000000000000000000000000000000000000000000000000000008152506040518060400160405280600581526020017f4152434944000000000000000000000000000000000000000000000000000000815250815f90816100ac9190610587565b5080600190816100bc9190610587565b5050505f73ffffffffffffffffffffffffffffffffffffffff168173ffffffffffffffffffffffffffffffffffffffff160361012f575f6040517f1e4fbdf70000000000000000000000000000000000000000000000000000000081526004016101269190610665565b60405180910390fd5b61013e816101eb60201b60201c565b505f73ffffffffffffffffffffffffffffffffffffffff168273ffffffffffffffffffffffffffffffffffffffff16036101a4576040517fd92e233d00000000000000000000000000000000000000000000000000000000815260040160405180910390fd5b8160085f6101000a81548173ffffffffffffffffffffffffffffffffffffffff021916908373ffffffffffffffffffffffffffffffffffffffff160217905550505061067e565b5f60065f9054906101000a900473ffffffffffffffffffffffffffffffffffffffff1690508160065f6101000a81548173ffffffffffffffffffffffffffffffffffffffff021916908373ffffffffffffffffffffffffffffffffffffffff1602179055508173ffffffffffffffffffffffffffffffffffffffff168173ffffffffffffffffffffffffffffffffffffffff167f8be0079c531659141344cd1fd0a4f28419497f9722a3daafe3b4186f6b6457e060405160405180910390a35050565b5f5ffd5b5f73ffffffffffffffffffffffffffffffffffffffff82169050919050565b5f6102db826102b2565b9050919050565b6102eb816102d1565b81146102f5575f5ffd5b50565b5f81519050610306816102e2565b92915050565b5f5f60408385031215610322576103216102ae565b5b5f61032f858286016102f8565b9250506020610340858286016102f8565b9150509250929050565b5f81519050919050565b7f4e487b71000000000000000000000000000000000000000000000000000000005f52604160045260245ffd5b7f4e487b71000000000000000000000000000000000000000000000000000000005f52602260045260245ffd5b5f60028204905060018216806103c557607f821691505b6020821081036103d8576103d7610381565b5b50919050565b5f819050815f5260205f209050919050565b5f6020601f8301049050919050565b5f82821b905092915050565b5f6008830261043a7fffffffffffffffffffffffffffffffffffffffffffffffffffffffffffffffff826103ff565b61044486836103ff565b95508019841693508086168417925050509392505050565b5f819050919050565b5f819050919050565b5f61048861048361047e8461045c565b610465565b61045c565b9050919050565b5f819050919050565b6104a18361046e565b6104b56104ad8261048f565b84845461040b565b825550505050565b5f5f905090565b6104cc6104bd565b6104d7818484610498565b505050565b5b818110156104fa576104ef5f826104c4565b6001810190506104dd565b5050565b601f82111561053f57610510816103de565b610519846103f0565b81016020851015610528578190505b61053c610534856103f0565b8301826104dc565b50505b505050565b5f82821c905092915050565b5f61055f5f1984600802610544565b1980831691505092915050565b5f6105778383610550565b9150826002028217905092915050565b6105908261034a565b67ffffffffffffffff8111156105a9576105a8610354565b5b6105b382546103ae565b6105be8282856104fe565b5f60209050601f8311600181146105ef575f84156105dd578287015190505b6105e7858261056c565b86555061064e565b601f1984166105fd866103de565b5f5b82811015610624578489015182556001820191506020850194506020810190506105ff565b86831015610641578489015161063d601f891682610550565b8355505b6001600288020188555050505b505050505050565b61065f816102d1565b82525050565b5f6020820190506106785f830184610656565b92915050565b6136478061068b5f395ff3fe608060405234801561000f575f5ffd5b50600436106101cd575f3560e01c806370a0823111610102578063c6345626116100a0578063e985e9c51161006f578063e985e9c51461055f578063eaaf77e61461058f578063f2fde38b146105c3578063fad88c8f146105df576101cd565b8063c6345626146104b3578063c87b56dd146104e3578063d3dd2bdf14610513578063e04cb08d14610543576101cd565b806395d89b41116100dc57806395d89b411461042d578063a22cb4651461044b578063b88d4fde14610467578063b9209e3314610483576101cd565b806370a08231146103d5578063715018a6146104055780638da5cb5b1461040f576101cd565b806323b872dd1161016f57806342842e0e1161014957806342842e0e146103515780634a4979da1461036d5780635437988d146103895780636352211e146103a5576101cd565b806323b872dd146102e75780632b7ac3f31461030357806336fcbbda14610321576101cd565b8063095ea7b3116101ab578063095ea7b31461024f5780630ebddd171461026b578063157c3df9146102875780631fb1a3d3146102b7576101cd565b806301ffc9a7146101d157806306fdde0314610201578063081812fc1461021f575b5f5ffd5b6101eb60048036038101906101e69190612814565b61060f565b6040516101f89190612859565b60405180910390f35b6102096106f0565b60405161021691906128e2565b60405180910390f35b61023960048036038101906102349190612935565b61077f565b604051610246919061299f565b60405180910390f35b610269600480360381019061026491906129e2565b61079a565b005b61028560048036038101906102809190612a20565b6107cc565b005b6102a1600480360381019061029c9190612935565b6109c2565b6040516102ae91906128e2565b60405180910390f35b6102d160048036038101906102cc9190612b16565b610ad3565b6040516102de9190612ba9565b60405180910390f35b61030160048036038101906102fc9190612bc2565b610d9c565b005b61030b610e9b565b604051610318919061299f565b60405180910390f35b61033b60048036038101906103369190612a20565b610ec0565b6040516103489190612d1c565b60405180910390f35b61036b60048036038101906103669190612bc2565b61106b565b005b61038760048036038101906103829190612b16565b61108a565b005b6103a3600480360381019061039e9190612a20565b6111fa565b005b6103bf60048036038101906103ba9190612935565b61132a565b6040516103cc919061299f565b60405180910390f35b6103ef60048036038101906103ea9190612a20565b61133b565b6040516103fc9190612ba9565b60405180910390f35b61040d6113f1565b005b610417611404565b604051610424919061299f565b60405180910390f35b61043561142c565b60405161044291906128e2565b60405180910390f35b61046560048036038101906104609190612d66565b6114bc565b005b610481600480360381019061047c9190612ecc565b6114ee565b005b61049d60048036038101906104989190612a20565b611513565b6040516104aa9190612859565b60405180910390f35b6104cd60048036038101906104c89190612a20565b61158f565b6040516104da9190612ba9565b60405180910390f35b6104fd60048036038101906104f89190612935565b6115a4565b60405161050a91906128e2565b60405180910390f35b61052d60048036038101906105289190612a20565b6116b5565b60405161053a9190612f5b565b60405180910390f35b61055d60048036038101906105589190612f74565b61175b565b005b6105796004803603810190610574919061300a565b6118cb565b6040516105869190612859565b60405180910390f35b6105a960048036038101906105a49190612935565b611959565b6040516105ba959493929190613066565b60405180910390f35b6105dd60048036038101906105d89190612a20565b611a3f565b005b6105f960048036038101906105f49190612935565b611ac3565b60405161060691906130be565b60405180910390f35b5f7f80ac58cd000000000000000000000000000000000000000000000000000000007bffffffffffffffffffffffffffffffffffffffffffffffffffffffff1916827bffffffffffffffffffffffffffffffffffffffffffffffffffffffff191614806106d957507f5b5e139f000000000000000000000000000000000000000000000000000000007bffffffffffffffffffffffffffffffffffffffffffffffffffffffff1916827bffffffffffffffffffffffffffffffffffffffffffffffffffffffff1916145b806106e957506106e882611b4c565b5b9050919050565b60605f80546106fe90613104565b80601f016020809104026020016040519081016040528092919081815260200182805461072a90613104565b80156107755780601f1061074c57610100808354040283529160200191610775565b820191905f5260205f20905b81548152906001019060200180831161075857829003601f168201915b5050505050905090565b5f61078982611bb5565b5061079382611c3b565b9050919050565b6040517fbb3f506900000000000000000000000000000000000000000000000000000000815260040160405180910390fd5b5f600a5f8373ffffffffffffffffffffffffffffffffffffffff1673ffffffffffffffffffffffffffffffffffffffff1681526020019081526020015f205490505f8103610846576040517fbb27712800000000000000000000000000000000000000000000000000000000815260040160405180910390fd5b60085f9054906101000a900473ffffffffffffffffffffffffffffffffffffffff1673ffffffffffffffffffffffffffffffffffffffff163373ffffffffffffffffffffffffffffffffffffffff16141580156108d657506108a6611404565b73ffffffffffffffffffffffffffffffffffffffff163373ffffffffffffffffffffffffffffffffffffffff1614155b1561090d576040517fea8e4eb500000000000000000000000000000000000000000000000000000000815260040160405180910390fd5b5f60095f8381526020019081526020015f206001015f6101000a81548160ff0219169083151502179055505f600a5f8473ffffffffffffffffffffffffffffffffffffffff1673ffffffffffffffffffffffffffffffffffffffff1681526020019081526020015f2081905550808273ffffffffffffffffffffffffffffffffffffffff167f3e3c59bb369a9da1f5c9df74adb044e1181c4e20448838f42d9e860bb0a18cdb60405160405180910390a35050565b60605f73ffffffffffffffffffffffffffffffffffffffff166109e483611c74565b73ffffffffffffffffffffffffffffffffffffffff1603610a31576040517fceea21b600000000000000000000000000000000000000000000000000000000815260040160405180910390fd5b60095f8381526020019081526020015f206002018054610a5090613104565b80601f0160208091040260200160405190810160405280929190818152602001828054610a7c90613104565b8015610ac75780601f10610a9e57610100808354040283529160200191610ac7565b820191905f5260205f20905b815481529060010190602001808311610aaa57829003601f168201915b50505050509050919050565b5f610adc611cad565b5f73ffffffffffffffffffffffffffffffffffffffff168673ffffffffffffffffffffffffffffffffffffffff1603610b41576040517fd92e233d00000000000000000000000000000000000000000000000000000000815260040160405180910390fd5b5f600a5f8873ffffffffffffffffffffffffffffffffffffffff1673ffffffffffffffffffffffffffffffffffffffff1681526020019081526020015f205414610bb7576040517f24f2b15200000000000000000000000000000000000000000000000000000000815260040160405180910390fd5b600160075f828254610bc99190613161565b925050819055505f6007549050610be08782611d35565b6040518060a001604052808781526020016001151581526020018461ffff1681526020014267ffffffffffffffff16815260200186868080601f0160208091040260200160405190810160405280939291908181526020018383808284375f81840152601f19601f8201169050808301925050505050505081525060095f8381526020019081526020015f205f820151815f01556020820151816001015f6101000a81548160ff02191690831515021790555060408201518160010160016101000a81548161ffff021916908361ffff16021790555060608201518160010160036101000a81548167ffffffffffffffff021916908367ffffffffffffffff1602179055506080820151816002019081610cfa9190613334565b5090505080600a5f8973ffffffffffffffffffffffffffffffffffffffff1673ffffffffffffffffffffffffffffffffffffffff1681526020019081526020015f2081905550808773ffffffffffffffffffffffffffffffffffffffff167ff909932c4441d503b50ed8f0a1f7c345bccd1b5d9ba6402ac55f2c17e96f8a2088604051610d8791906130be565b60405180910390a38091505095945050505050565b5f73ffffffffffffffffffffffffffffffffffffffff168273ffffffffffffffffffffffffffffffffffffffff1603610e0c575f6040517f64a0ae92000000000000000000000000000000000000000000000000000000008152600401610e03919061299f565b60405180910390fd5b5f610e1f8383610e1a611d52565b611d59565b90508373ffffffffffffffffffffffffffffffffffffffff168173ffffffffffffffffffffffffffffffffffffffff1614610e95578382826040517f64283d7b000000000000000000000000000000000000000000000000000000008152600401610e8c93929190613403565b60405180910390fd5b50505050565b60085f9054906101000a900473ffffffffffffffffffffffffffffffffffffffff1681565b610ec8612773565b5f600a5f8473ffffffffffffffffffffffffffffffffffffffff1673ffffffffffffffffffffffffffffffffffffffff1681526020019081526020015f205490505f8103610f42576040517fbb27712800000000000000000000000000000000000000000000000000000000815260040160405180910390fd5b60095f8281526020019081526020015f206040518060a00160405290815f8201548152602001600182015f9054906101000a900460ff161515151581526020016001820160019054906101000a900461ffff1661ffff1661ffff1681526020016001820160039054906101000a900467ffffffffffffffff1667ffffffffffffffff1667ffffffffffffffff168152602001600282018054610fe390613104565b80601f016020809104026020016040519081016040528092919081815260200182805461100f90613104565b801561105a5780601f106110315761010080835404028352916020019161105a565b820191905f5260205f20905b81548152906001019060200180831161103d57829003601f168201915b505050505081525050915050919050565b61108583838360405180602001604052805f8152506114ee565b505050565b611092611cad565b5f600a5f8773ffffffffffffffffffffffffffffffffffffffff1673ffffffffffffffffffffffffffffffffffffffff1681526020019081526020015f205490505f810361110c576040517fbb27712800000000000000000000000000000000000000000000000000000000815260040160405180910390fd5b5f60095f8381526020019081526020015f20905085815f0181905550848482600201918261113b929190613442565b50828160010160016101000a81548161ffff021916908361ffff1602179055506001816001015f6101000a81548160ff021916908315150217905550428160010160036101000a81548167ffffffffffffffff021916908367ffffffffffffffff160217905550818773ffffffffffffffffffffffffffffffffffffffff167ff6680e5d8e73e9fe081ac4ac3c29404b2b711bce46d3f2afc6ee1912b4c60aba886040516111e991906130be565b60405180910390a350505050505050565b611202611e1a565b5f73ffffffffffffffffffffffffffffffffffffffff168173ffffffffffffffffffffffffffffffffffffffff1603611267576040517fd92e233d00000000000000000000000000000000000000000000000000000000815260040160405180910390fd5b5f60085f9054906101000a900473ffffffffffffffffffffffffffffffffffffffff1690508160085f6101000a81548173ffffffffffffffffffffffffffffffffffffffff021916908373ffffffffffffffffffffffffffffffffffffffff1602179055508173ffffffffffffffffffffffffffffffffffffffff168173ffffffffffffffffffffffffffffffffffffffff167f0243549a92b2412f7a3caf7a2e56d65b8821b91345363faa5f57195384065fcc60405160405180910390a35050565b5f61133482611bb5565b9050919050565b5f5f73ffffffffffffffffffffffffffffffffffffffff168273ffffffffffffffffffffffffffffffffffffffff16036113ac575f6040517f89c62b640000000000000000000000000000000000000000000000000000000081526004016113a3919061299f565b60405180910390fd5b60035f8373ffffffffffffffffffffffffffffffffffffffff1673ffffffffffffffffffffffffffffffffffffffff1681526020019081526020015f20549050919050565b6113f9611e1a565b6114025f611ea1565b565b5f60065f9054906101000a900473ffffffffffffffffffffffffffffffffffffffff16905090565b60606001805461143b90613104565b80601f016020809104026020016040519081016040528092919081815260200182805461146790613104565b80156114b25780601f10611489576101008083540402835291602001916114b2565b820191905f5260205f20905b81548152906001019060200180831161149557829003601f168201915b5050505050905090565b6040517fbb3f506900000000000000000000000000000000000000000000000000000000815260040160405180910390fd5b6114f9848484610d9c565b61150d611504611d52565b85858585611f64565b50505050565b5f5f600a5f8473ffffffffffffffffffffffffffffffffffffffff1673ffffffffffffffffffffffffffffffffffffffff1681526020019081526020015f205490505f8103611565575f91505061158a565b60095f8281526020019081526020015f206001015f9054906101000a900460ff169150505b919050565b600a602052805f5260405f205f915090505481565b60605f73ffffffffffffffffffffffffffffffffffffffff166115c683611c74565b73ffffffffffffffffffffffffffffffffffffffff1603611613576040517fceea21b600000000000000000000000000000000000000000000000000000000815260040160405180910390fd5b60095f8381526020019081526020015f20600201805461163290613104565b80601f016020809104026020016040519081016040528092919081815260200182805461165e90613104565b80156116a95780601f10611680576101008083540402835291602001916116a9565b820191905f5260205f20905b81548152906001019060200180831161168c57829003601f168201915b50505050509050919050565b5f5f600a5f8473ffffffffffffffffffffffffffffffffffffffff1673ffffffffffffffffffffffffffffffffffffffff1681526020019081526020015f205490505f8103611730576040517fbb27712800000000000000000000000000000000000000000000000000000000815260040160405180910390fd5b60095f8281526020019081526020015f2060010160019054906101000a900461ffff16915050919050565b611763611cad565b5f600a5f8873ffffffffffffffffffffffffffffffffffffffff1673ffffffffffffffffffffffffffffffffffffffff1681526020019081526020015f205490505f81036117dd576040517fbb27712800000000000000000000000000000000000000000000000000000000815260040160405180910390fd5b5f60095f8381526020019081526020015f20905086815f0181905550858582600201918261180c929190613442565b50838160010160016101000a81548161ffff021916908361ffff16021790555082816001015f6101000a81548160ff021916908315150217905550428160010160036101000a81548167ffffffffffffffff021916908367ffffffffffffffff160217905550818873ffffffffffffffffffffffffffffffffffffffff167f2cb20859919b12d2ff062a48bc8207fa8a4c0e6ce12a44045d742b0fbfb425dc896040516118b991906130be565b60405180910390a35050505050505050565b5f60055f8473ffffffffffffffffffffffffffffffffffffffff1673ffffffffffffffffffffffffffffffffffffffff1681526020019081526020015f205f8373ffffffffffffffffffffffffffffffffffffffff1673ffffffffffffffffffffffffffffffffffffffff1681526020019081526020015f205f9054906101000a900460ff16905092915050565b6009602052805f5260405f205f91509050805f015490806001015f9054906101000a900460ff16908060010160019054906101000a900461ffff16908060010160039054906101000a900467ffffffffffffffff16908060020180546119be90613104565b80601f01602080910402602001604051908101604052809291908181526020018280546119ea90613104565b8015611a355780601f10611a0c57610100808354040283529160200191611a35565b820191905f5260205f20905b815481529060010190602001808311611a1857829003601f168201915b5050505050905085565b611a47611e1a565b5f73ffffffffffffffffffffffffffffffffffffffff168173ffffffffffffffffffffffffffffffffffffffff1603611ab7575f6040517f1e4fbdf7000000000000000000000000000000000000000000000000000000008152600401611aae919061299f565b60405180910390fd5b611ac081611ea1565b50565b5f5f73ffffffffffffffffffffffffffffffffffffffff16611ae483611c74565b73ffffffffffffffffffffffffffffffffffffffff1603611b31576040517fceea21b600000000000000000000000000000000000000000000000000000000815260040160405180910390fd5b60095f8381526020019081526020015f205f01549050919050565b5f7f01ffc9a7000000000000000000000000000000000000000000000000000000007bffffffffffffffffffffffffffffffffffffffffffffffffffffffff1916827bffffffffffffffffffffffffffffffffffffffffffffffffffffffff1916149050919050565b5f5f611bc083611c74565b90505f73ffffffffffffffffffffffffffffffffffffffff168173ffffffffffffffffffffffffffffffffffffffff1603611c3257826040517f7e273289000000000000000000000000000000000000000000000000000000008152600401611c299190612ba9565b60405180910390fd5b80915050919050565b5f60045f8381526020019081526020015f205f9054906101000a900473ffffffffffffffffffffffffffffffffffffffff169050919050565b5f60025f8381526020019081526020015f205f9054906101000a900473ffffffffffffffffffffffffffffffffffffffff169050919050565b60085f9054906101000a900473ffffffffffffffffffffffffffffffffffffffff1673ffffffffffffffffffffffffffffffffffffffff163373ffffffffffffffffffffffffffffffffffffffff1614611d33576040517f7a241b0200000000000000000000000000000000000000000000000000000000815260040160405180910390fd5b565b611d4e828260405180602001604052805f815250612110565b5050565b5f33905090565b5f5f611d6484611c74565b90505f73ffffffffffffffffffffffffffffffffffffffff168173ffffffffffffffffffffffffffffffffffffffff1614158015611dce57505f73ffffffffffffffffffffffffffffffffffffffff168573ffffffffffffffffffffffffffffffffffffffff1614155b15611e05576040517fbb3f506900000000000000000000000000000000000000000000000000000000815260040160405180910390fd5b611e10858585612133565b9150509392505050565b611e22611d52565b73ffffffffffffffffffffffffffffffffffffffff16611e40611404565b73ffffffffffffffffffffffffffffffffffffffff1614611e9f57611e63611d52565b6040517f118cdaa7000000000000000000000000000000000000000000000000000000008152600401611e96919061299f565b60405180910390fd5b565b5f60065f9054906101000a900473ffffffffffffffffffffffffffffffffffffffff1690508160065f6101000a81548173ffffffffffffffffffffffffffffffffffffffff021916908373ffffffffffffffffffffffffffffffffffffffff1602179055508173ffffffffffffffffffffffffffffffffffffffff168173ffffffffffffffffffffffffffffffffffffffff167f8be0079c531659141344cd1fd0a4f28419497f9722a3daafe3b4186f6b6457e060405160405180910390a35050565b5f8373ffffffffffffffffffffffffffffffffffffffff163b1115612109578273ffffffffffffffffffffffffffffffffffffffff1663150b7a02868685856040518563ffffffff1660e01b8152600401611fc29493929190613561565b6020604051808303815f875af1925050508015611ffd57506040513d601f19601f82011682018060405250810190611ffa91906135bf565b60015b61207e573d805f811461202b576040519150601f19603f3d011682016040523d82523d5f602084013e612030565b606091505b505f81510361207657836040517f64a0ae9200000000000000000000000000000000000000000000000000000000815260040161206d919061299f565b60405180910390fd5b805160208201fd5b63150b7a0260e01b7bffffffffffffffffffffffffffffffffffffffffffffffffffffffff1916817bffffffffffffffffffffffffffffffffffffffffffffffffffffffff19161461210757836040517f64a0ae920000000000000000000000000000000000000000000000000000000081526004016120fe919061299f565b60405180910390fd5b505b5050505050565b61211a838361233e565b61212e612125611d52565b5f858585611f64565b505050565b5f5f61213e84611c74565b90505f73ffffffffffffffffffffffffffffffffffffffff168373ffffffffffffffffffffffffffffffffffffffff161461217f5761217e818486612431565b5b5f73ffffffffffffffffffffffffffffffffffffffff168173ffffffffffffffffffffffffffffffffffffffff161461220a576121be5f855f5f6124f4565b600160035f8373ffffffffffffffffffffffffffffffffffffffff1673ffffffffffffffffffffffffffffffffffffffff1681526020019081526020015f205f82825403925050819055505b5f73ffffffffffffffffffffffffffffffffffffffff168573ffffffffffffffffffffffffffffffffffffffff161461228957600160035f8773ffffffffffffffffffffffffffffffffffffffff1673ffffffffffffffffffffffffffffffffffffffff1681526020019081526020015f205f82825401925050819055505b8460025f8681526020019081526020015f205f6101000a81548173ffffffffffffffffffffffffffffffffffffffff021916908373ffffffffffffffffffffffffffffffffffffffff160217905550838573ffffffffffffffffffffffffffffffffffffffff168273ffffffffffffffffffffffffffffffffffffffff167fddf252ad1be2c89b69c2b068fc378daa952ba7f163c4a11628f55a4df523b3ef60405160405180910390a4809150509392505050565b5f73ffffffffffffffffffffffffffffffffffffffff168273ffffffffffffffffffffffffffffffffffffffff16036123ae575f6040517f64a0ae920000000000000000000000000000000000000000000000000000000081526004016123a5919061299f565b60405180910390fd5b5f6123ba83835f611d59565b90505f73ffffffffffffffffffffffffffffffffffffffff168173ffffffffffffffffffffffffffffffffffffffff161461242c575f6040517f73c6ac6e000000000000000000000000000000000000000000000000000000008152600401612423919061299f565b60405180910390fd5b505050565b61243c8383836126b3565b6124ef575f73ffffffffffffffffffffffffffffffffffffffff168373ffffffffffffffffffffffffffffffffffffffff16036124b057806040517f7e2732890000000000000000000000000000000000000000000000000000000081526004016124a79190612ba9565b60405180910390fd5b81816040517f177e802f0000000000000000000000000000000000000000000000000000000081526004016124e69291906135ea565b60405180910390fd5b505050565b808061252c57505f73ffffffffffffffffffffffffffffffffffffffff168273ffffffffffffffffffffffffffffffffffffffff1614155b1561265e575f61253b84611bb5565b90505f73ffffffffffffffffffffffffffffffffffffffff168373ffffffffffffffffffffffffffffffffffffffff16141580156125a557508273ffffffffffffffffffffffffffffffffffffffff168173ffffffffffffffffffffffffffffffffffffffff1614155b80156125b857506125b681846118cb565b155b156125fa57826040517fa9fbf51f0000000000000000000000000000000000000000000000000000000081526004016125f1919061299f565b60405180910390fd5b811561265c57838573ffffffffffffffffffffffffffffffffffffffff168273ffffffffffffffffffffffffffffffffffffffff167f8c5be1e5ebec7d5bd14f71427d1e84f3dd0314c0f7b2291e5b200ac8c7c3b92560405160405180910390a45b505b8360045f8581526020019081526020015f205f6101000a81548173ffffffffffffffffffffffffffffffffffffffff021916908373ffffffffffffffffffffffffffffffffffffffff16021790555050505050565b5f5f73ffffffffffffffffffffffffffffffffffffffff168373ffffffffffffffffffffffffffffffffffffffff161415801561276a57508273ffffffffffffffffffffffffffffffffffffffff168473ffffffffffffffffffffffffffffffffffffffff16148061272b575061272a84846118cb565b5b8061276957508273ffffffffffffffffffffffffffffffffffffffff1661275183611c3b565b73ffffffffffffffffffffffffffffffffffffffff16145b5b90509392505050565b6040518060a001604052805f81526020015f151581526020015f61ffff1681526020015f67ffffffffffffffff168152602001606081525090565b5f604051905090565b5f5ffd5b5f5ffd5b5f7fffffffff0000000000000000000000000000000000000000000000000000000082169050919050565b6127f3816127bf565b81146127fd575f5ffd5b50565b5f8135905061280e816127ea565b92915050565b5f60208284031215612829576128286127b7565b5b5f61283684828501612800565b91505092915050565b5f8115159050919050565b6128538161283f565b82525050565b5f60208201905061286c5f83018461284a565b92915050565b5f81519050919050565b5f82825260208201905092915050565b8281835e5f83830152505050565b5f601f19601f8301169050919050565b5f6128b482612872565b6128be818561287c565b93506128ce81856020860161288c565b6128d78161289a565b840191505092915050565b5f6020820190508181035f8301526128fa81846128aa565b905092915050565b5f819050919050565b61291481612902565b811461291e575f5ffd5b50565b5f8135905061292f8161290b565b92915050565b5f6020828403121561294a576129496127b7565b5b5f61295784828501612921565b91505092915050565b5f73ffffffffffffffffffffffffffffffffffffffff82169050919050565b5f61298982612960565b9050919050565b6129998161297f565b82525050565b5f6020820190506129b25f830184612990565b92915050565b6129c18161297f565b81146129cb575f5ffd5b50565b5f813590506129dc816129b8565b92915050565b5f5f604083850312156129f8576129f76127b7565b5b5f612a05858286016129ce565b9250506020612a1685828601612921565b9150509250929050565b5f60208284031215612a3557612a346127b7565b5b5f612a42848285016129ce565b91505092915050565b5f819050919050565b612a5d81612a4b565b8114612a67575f5ffd5b50565b5f81359050612a7881612a54565b92915050565b5f5ffd5b5f5ffd5b5f5ffd5b5f5f83601f840112612a9f57612a9e612a7e565b5b8235905067ffffffffffffffff811115612abc57612abb612a82565b5b602083019150836001820283011115612ad857612ad7612a86565b5b9250929050565b5f61ffff82169050919050565b612af581612adf565b8114612aff575f5ffd5b50565b5f81359050612b1081612aec565b92915050565b5f5f5f5f5f60808688031215612b2f57612b2e6127b7565b5b5f612b3c888289016129ce565b9550506020612b4d88828901612a6a565b945050604086013567ffffffffffffffff811115612b6e57612b6d6127bb565b5b612b7a88828901612a8a565b93509350506060612b8d88828901612b02565b9150509295509295909350565b612ba381612902565b82525050565b5f602082019050612bbc5f830184612b9a565b92915050565b5f5f5f60608486031215612bd957612bd86127b7565b5b5f612be6868287016129ce565b9350506020612bf7868287016129ce565b9250506040612c0886828701612921565b9150509250925092565b612c1b81612a4b565b82525050565b612c2a8161283f565b82525050565b612c3981612adf565b82525050565b5f67ffffffffffffffff82169050919050565b612c5b81612c3f565b82525050565b5f82825260208201905092915050565b5f612c7b82612872565b612c858185612c61565b9350612c9581856020860161288c565b612c9e8161289a565b840191505092915050565b5f60a083015f830151612cbe5f860182612c12565b506020830151612cd16020860182612c21565b506040830151612ce46040860182612c30565b506060830151612cf76060860182612c52565b5060808301518482036080860152612d0f8282612c71565b9150508091505092915050565b5f6020820190508181035f830152612d348184612ca9565b905092915050565b612d458161283f565b8114612d4f575f5ffd5b50565b5f81359050612d6081612d3c565b92915050565b5f5f60408385031215612d7c57612d7b6127b7565b5b5f612d89858286016129ce565b9250506020612d9a85828601612d52565b9150509250929050565b5f5ffd5b7f4e487b71000000000000000000000000000000000000000000000000000000005f52604160045260245ffd5b612dde8261289a565b810181811067ffffffffffffffff82111715612dfd57612dfc612da8565b5b80604052505050565b5f612e0f6127ae565b9050612e1b8282612dd5565b919050565b5f67ffffffffffffffff821115612e3a57612e39612da8565b5b612e438261289a565b9050602081019050919050565b828183375f83830152505050565b5f612e70612e6b84612e20565b612e06565b905082815260208101848484011115612e8c57612e8b612da4565b5b612e97848285612e50565b509392505050565b5f82601f830112612eb357612eb2612a7e565b5b8135612ec3848260208601612e5e565b91505092915050565b5f5f5f5f60808587031215612ee457612ee36127b7565b5b5f612ef1878288016129ce565b9450506020612f02878288016129ce565b9350506040612f1387828801612921565b925050606085013567ffffffffffffffff811115612f3457612f336127bb565b5b612f4087828801612e9f565b91505092959194509250565b612f5581612adf565b82525050565b5f602082019050612f6e5f830184612f4c565b92915050565b5f5f5f5f5f5f60a08789031215612f8e57612f8d6127b7565b5b5f612f9b89828a016129ce565b9650506020612fac89828a01612a6a565b955050604087013567ffffffffffffffff811115612fcd57612fcc6127bb565b5b612fd989828a01612a8a565b94509450506060612fec89828a01612b02565b9250506080612ffd89828a01612d52565b9150509295509295509295565b5f5f604083850312156130205761301f6127b7565b5b5f61302d858286016129ce565b925050602061303e858286016129ce565b9150509250929050565b61305181612a4b565b82525050565b61306081612c3f565b82525050565b5f60a0820190506130795f830188613048565b613086602083018761284a565b6130936040830186612f4c565b6130a06060830185613057565b81810360808301526130b281846128aa565b90509695505050505050565b5f6020820190506130d15f830184613048565b92915050565b7f4e487b71000000000000000000000000000000000000000000000000000000005f52602260045260245ffd5b5f600282049050600182168061311b57607f821691505b60208210810361312e5761312d6130d7565b5b50919050565b7f4e487b71000000000000000000000000000000000000000000000000000000005f52601160045260245ffd5b5f61316b82612902565b915061317683612902565b925082820190508082111561318e5761318d613134565b5b92915050565b5f819050815f5260205f209050919050565b5f6020601f8301049050919050565b5f82821b905092915050565b5f600883026131f07fffffffffffffffffffffffffffffffffffffffffffffffffffffffffffffffff826131b5565b6131fa86836131b5565b95508019841693508086168417925050509392505050565b5f819050919050565b5f61323561323061322b84612902565b613212565b612902565b9050919050565b5f819050919050565b61324e8361321b565b61326261325a8261323c565b8484546131c1565b825550505050565b5f5f905090565b61327961326a565b613284818484613245565b505050565b5b818110156132a75761329c5f82613271565b60018101905061328a565b5050565b601f8211156132ec576132bd81613194565b6132c6846131a6565b810160208510156132d5578190505b6132e96132e1856131a6565b830182613289565b50505b505050565b5f82821c905092915050565b5f61330c5f19846008026132f1565b1980831691505092915050565b5f61332483836132fd565b9150826002028217905092915050565b61333d82612872565b67ffffffffffffffff81111561335657613355612da8565b5b6133608254613104565b61336b8282856132ab565b5f60209050601f83116001811461339c575f841561338a578287015190505b6133948582613319565b8655506133fb565b601f1984166133aa86613194565b5f5b828110156133d1578489015182556001820191506020850194506020810190506133ac565b868310156133ee57848901516133ea601f8916826132fd565b8355505b6001600288020188555050505b505050505050565b5f6060820190506134165f830186612990565b6134236020830185612b9a565b6134306040830184612990565b949350505050565b5f82905092915050565b61344c8383613438565b67ffffffffffffffff81111561346557613464612da8565b5b61346f8254613104565b61347a8282856132ab565b5f601f8311600181146134a7575f8415613495578287013590505b61349f8582613319565b865550613506565b601f1984166134b586613194565b5f5b828110156134dc578489013582556001820191506020850194506020810190506134b7565b868310156134f957848901356134f5601f8916826132fd565b8355505b6001600288020188555050505b50505050505050565b5f81519050919050565b5f82825260208201905092915050565b5f6135338261350f565b61353d8185613519565b935061354d81856020860161288c565b6135568161289a565b840191505092915050565b5f6080820190506135745f830187612990565b6135816020830186612990565b61358e6040830185612b9a565b81810360608301526135a08184613529565b905095945050505050565b5f815190506135b9816127ea565b92915050565b5f602082840312156135d4576135d36127b7565b5b5f6135e1848285016135ab565b91505092915050565b5f6040820190506135fd5f830185612990565b61360a6020830184612b9a565b939250505056fea2646970667358221220d4d40fcebd8f428c4b2a03a646d5b176cb0a8b6bee4fe4e39b57f11e2e013d1c64736f6c634300081e0033",
    "linkReferences": {}
  },
  "methodIdentifiers": {
    "approve(address,uint256)": "095ea7b3",
    "balanceOf(address)": "70a08231",
    "getApproved(uint256)": "081812fc",
    "getCreditScore(address)": "d3dd2bdf",
    "getIdentityData(address)": "36fcbbda",
    "identities(uint256)": "eaaf77e6",
    "identityOf(address)": "c6345626",
    "isApprovedForAll(address,address)": "e985e9c5",
    "isVerified(address)": "b9209e33",
    "mintIdentity(address,bytes32,string,uint16)": "1fb1a3d3",
    "name()": "06fdde03",
    "owner()": "8da5cb5b",
    "ownerOf(uint256)": "6352211e",
    "renounceOwnership()": "715018a6",
    "reverifyIdentity(address,bytes32,string,uint16)": "4a4979da",
    "revokeIdentity(address)": "0ebddd17",
    "safeTransferFrom(address,address,uint256)": "42842e0e",
    "safeTransferFrom(address,address,uint256,bytes)": "b88d4fde",
    "setApprovalForAll(address,bool)": "a22cb465",
    "setVerifier(address)": "5437988d",
    "supportsInterface(bytes4)": "01ffc9a7",
    "symbol()": "95d89b41",
    "tokenDataHash(uint256)": "fad88c8f",
    "tokenMetadataURI(uint256)": "157c3df9",
    "tokenURI(uint256)": "c87b56dd",
    "transferFrom(address,address,uint256)": "23b872dd",
    "transferOwnership(address)": "f2fde38b",
    "updateIdentity(address,bytes32,string,uint16,bool)": "e04cb08d",
    "verifier()": "2b7ac3f3"
  },
  "id": 32
}